:100000000C94AB0F0C94DC0F0C94DC0F0C94DC0FF5
:100010000C94DC0F0C94DC0F0C94DC0F0C94DC0FB4
:100020000C94DC0F0C94DC0F0C94DC0F0C94DC0FA4
:100030000C94DC0F0C94DC0F0C94DC0F0C94DC0F94
:100040000C94DC0F0C9479620C94DC0F0C94DC0F94
:100050000C94DC0F0C94DC0F0C9405530C94CC7BAB
:100060000C94DC0F0C94BF240C94DC0F0C94DC0F6C
:100070000C94DC0F0C94DC0F0C94DC0F0C94DC0F54
:100080000C94DC0F0C94DC0F0C94DC0F0C94DC0F44
:100090000C94DC0F0C94DC0F0C94DC0F0C94DC0F34
:1000A0000C94DC0F0C94DC0F0C94DC0F0C94DC0F24
:1000B0000C94DC0F0C94DC0F0C94DC0F0C94DC0F14
:1000C0000C94DC0F0C94DC0F0C94DC0F0C94DC0F04
:1000D0000C94DC0F0C94DC0F0C94DC0F0C94DC0FF4
:1000E0000C94DC0F3A673D672C673067366774679E
:1000F000416745674B674F67536759675D6761673E
:10010000746767676B676F67867A8B7A907A9A7A7B
:10011000A47A1D7BAE7AB67ABE7AC87AD27ADC7AB5
:10012000EB7AF57A1D7BFF7A097B137B084AD73B74
:100130003BCE016E84BCBFFDC12F3D6C74319ABDB6
:1001400056833DDA3D00C77F11BED9E4BB4C3E91DA
:100150006BAAAABE000000803F05A84CCDB2D44EC9
:10016000B93836A9020C50B9918688083CA6AAAACB
:100170002ABE000000803F004E414E494E4954596E
:10018000494E46CDCCCC3D0AD7233C17B7D1387762
:10019000CC2B329595E6241FB14F0A000020410078
:1001A00000C84200401C4620BCBE4CCA1B0E5AAEC2
:1001B000C59D74434F4D4D554E49434154494F4E93
:1001C0000044525952554E004552524F5253004925
:1001D0004E464F004543484F0047322F4733206279
:1001E000616420706172616D65746572730A0020CC
:1001F0006F6620004D424C2047323920706F696E87
:1002000074200059206F7574206F662072616E67CC
:10021000652028312D33292E0A0058206F7574204F
:100220006F662072616E67652028312D33292E0A92
:10023000004D6573682070726F62696E6720646F2D
:100240006E652E0A005374617274206D65736820A8
:1002500070726F62696E6720776974682022473216
:1002600039205331222066697273742E0A00473296
:10027000380A4732392053320053746174653A208A
:10028000004D65736820626564206C6576656C69F5
:100290006E6720686173206E6F20646174612E0A3E
:1002A0000053206F7574206F662072616E67652041
:1002B00028302D35292E0A004D65736820706F692E
:1002C0006E742063616E6E6F742062652072657358
:1002D0006F6C7665640A002569730025696D2025B9
:1002E0006973002569682025696D202569730025DB
:1002F0006964202569682025696D202569730025BA
:10030000697920256964202569682025696D202583
:100310006973005072696E742074696D653A2000CB
:10032000D401CF01C801C101B3016F666600444525
:100330004255473A004B494C4C45442E20004D3124
:1003400031332053006F6B002C20002C20005448C8
:1003500045524D414C5F50524F54454354494F4EC6
:10036000004155544F5245504F52545F53445F53D0
:10037000544154555300454D455247454E43595FEE
:1003800050415253455200434153455F4C49474801
:10039000545F4252494748544E45535300544F47C7
:1003A000474C455F4C494748545300534F465457B8
:1003B0004152455F504F574552004255494C445FAA
:1003C00050455243454E54004C4556454C494E47C6
:1003D0005F44415441005A5F50524F4245004155DD
:1003E000544F4C4556454C005052494E545F4A4F6D
:1003F000420050524F4752455353004155544F52BB
:1004000045504F52545F54454D5000564F4C554D3A
:10041000455452494300454550524F4D00534552B3
:1004200049414C5F584F4E5F584F4646004649522F
:100430004D574152455F4E414D453A4D61726C6991
:100440006E20312E312E3920284769746875622953
:1004500020534F555243455F434F44455F55524CDF
:100460003A68747470733A2F2F6769746875622ED6
:10047000636F6D2F4D61726C696E4669726D776145
:1004800072652F4D61726C696E2050524F544F430C
:100490004F4C5F56455253494F4E3A312E30204D06
:1004A000414348494E455F545950453A33442050E2
:1004B00072696E7465722045585452554445525FB6
:1004C000434F554E543A3120555549443A6365647B
:1004D00065326132662D343161322D343734382D36
:1004E000396231322D6335356336326633363766DD
:1004F000660A002F2F200020540020520041636321
:10050000656C65726174696F6E3A20500057415294
:100510004E494E4721204C6F77205A204A65726B16
:10052000206D6179206C65616420746F20756E7731
:10053000616E746564207061757365732E0A0000C6
:100540000000C00000A0C000000000546F6F2066D3
:1005500061722066726F6D207265666572656E638A
:100560006520706F696E740A00FFFFFF205A00203B
:100570005900580020204D61783A2000205A002070
:100580005900580020204D696E3A20004F6E20001F
:100590004F666600536F667420656E6473746F7087
:1005A000733A200020466C6F773A200000013637FE
:1005B0002603FFFFFF3B3C3D380EFFFFFF3F2E3081
:1005C0003E12FFFFFFFF28FF0C080907FFFF1A1C60
:1005D00018FFFF2A08440A074324221E2C20643AED
:1005E0000020693A0020703A00496E76616C6964B7
:1005F0002065787472756465720A0043290A006187
:10060000626C656420286D696E2074656D702000D1
:10061000436F6C64206578747275646573206172D1
:1006200065200020643A0020693A0020703A004EAC
:100630006F2063617365206C696768740A004545C3
:1006400050524F4D204F4B0A003F4B2076616C7546
:1006500065206F7574206F662072616E6765202853
:10066000302D3130292E0A00416476616E63652099
:100670004B3D0041637469766520457874727564FA
:1006800065723A2000496E76616C69642065787401
:1006900072756465720A006F6B00205A3A00205927
:1006A0003A0020583A00656E6473746F7073206866
:1006B00069743A200024F4D43050C38E20C2A24082
:1006C00017828B7011127A910D816CD90AA861E1A1
:1006D00008C7586607615143061E4B5D05C145A713
:1006E000041A411104093D9803713931034036DB86
:1006F0000265339102D4305402802E1D02632CEE29
:1007000001752AC501B028A001102781018F256439
:10071000012B244B01E0223401AC211F018D200D5F
:1007200001801FFC00841EED00971DDF00B81CD265
:1007300000E61BC600201BBC00641AB200B219A858
:10074000000A19A0006A189900D117910040178B70
:1007500000B516840031167E00B31579003A157382
:1007600000C7146F0058146A00EE13660088136304
:100770000025135E00C7125B006C1257001512545F
:1007800000C111510070114F0021114B00D61049CA
:10079000008D1047004610440002104200C00F4078
:1007A00000800F3E00420F3C00060F3B00CB0E388E
:1007B00000930E37005C0E3500270E3400F30D3227
:1007C00000C10D3100900D3000600D2E00320D2D56
:1007D00000050D2C00D90C2B00AE0C2900850C292E
:1007E000005C0C2700350C27000E0C2600E80B24BB
:1007F00000C40B2400A00B23007D0B23005A0B2107
:1008000000390B2100180B2000F80A1F00D90A1E1E
:1008100000BB0A1E009D0A1D00800A1D00630A1C01
:1008200000470A1B002C0A1B00110A1A00F7091ABC
:1008300000DD091900C4091900AB09190092091754
:10084000007B091800630917004C091600360916C9
:1008500000200916000A091500F5081500E0081423
:1008600000CC081400B8081400A408140090081361
:10087000007D0812006B0813005808120046081289
:10088000003408110023081100120811000108119A
:1008900000F0071000E0071000D0071000C007109C
:1008A00000B0070F00A107100091070E0083070F8B
:1008B0000074070F0065070E0057070E0049070E6A
:1008C000003B070D002E070E0020070D0013070D3B
:1008D0000006070D00F9060C00ED060D00E0060C01
:1008E00000D4060C00C8060C00BC060C00B0060CB8
:1008F00000A4060B0099060C008D060B0082060B67
:100900000077060B006C060B0061060A0057060B09
:10091000004C060A0042060A0038060A002E060AA3
:100920000024060A001A060A001006090007060A33
:1009300000FD050900F4050900EB050900E20509C1
:1009400000D9050900D0050900C7050900BE050941
:1009500000B5050800AD050800A50509009C0508BF
:1009600000940508008C050800840508007C050833
:1009700000740508006C050700650508005D0507A3
:1009800000560508004E050700470507004005080A
:100990000038050700310507002A05070023050771
:1009A000001C050600160507000F050700080506D0
:1009B0000002050700FB040600F5040700EE04062C
:1009C00000E8040600E2040700DB040600D5040684
:1009D00000CF040600C9040600C3040600BD0406D7
:1009E00000B7040600B1040500AC040600A6040626
:1009F00000A00405009B0406009504050090040671
:100A0000008A04050085040500800406007A0405B8
:100A10000075040500700405006B040500660405FC
:100A200000610405005C040500570405005204053C
:100A3000004D04050048040500430405003E04047D
:100A4000003A04050035040500300404002C0405B8
:100A50000027040400230405001E0404001A0404F3
:100A60000016040500110404000D04040009040527
:100A7000000404040000040400FC030400F8030460
:100A800000F4030400F0030400EC030400E8030492
:100A900000E4030400E0030400DC030400D80304C2
:100AA00000D4030400D0030400CC030400C80303F3
:100AB00000C503030024F404D9201BC40C5C0E9869
:100AC00004C4095F0265077101F405F900FB04B372
:100AD0000048048700C1036900580355000303451B
:100AE00000BE023A008402310053022A0029022586
:100AF0000004022000E4011C00C8011900AF011726
:100B000000980114008401130071011000610110AC
:100B10000051010E0043010D0036010B002B010BAB
:100B20000020010B00150109000C01090003010858
:100B300000FB000800F3000800EB000700E40006DB
:100B400000DE000600D8000600D2000600CC00053A
:100B500000C7000500C2000500BD000400B9000484
:100B600000B5000400B1000400AD000400A90004B9
:100B700000A5000300A20003009F0004009B0003E7
:100B8000009800030095000200930003009000030A
:100B9000008D0002008B0003008800020086000226
:100BA0000084000300810002007F0002007D00023B
:100BB000007B00020079000200770001007600024D
:100BC000007400020072000100710002006F000258
:100BD000006D0001006C0002006A00010069000263
:100BE000006700010066000100650001006400026A
:100BF000006200010061000100600001005F00026E
:100C0000005D0001005C0001005B0001005A000172
:100C10000059000100580001005700010056000172
:100C20000055000100540001005300000053000172
:100C3000005200010051000100500001004F00016E
:100C4000004E0000004E0001004D0001004C00016C
:100C5000004B0000004B0001004A00010049000168
:100C60000048000000480001004700010046000065
:100C7000004600010045000000450001004400015D
:100C80000043000000430001004200000042000158
:100C9000004100000041000100400001003F000051
:100CA000003F0001003E0000003E0001003D00004A
:100CB000003D0001003C0000003C0000003C000141
:100CC000003B0000003B0001003A0000003A000138
:100CD0000039000000390001003800000038000031
:100CE0000038000100370000003700010036000026
:100CF000003600000036000100350000003500001D
:100D00000035000100340000003400000034000110
:100D10000033000000330000003300010032000007
:100D200000320000003200010031000000310000FC
:100D300000310001003000000030000000300001F0
:100D4000002F0000002F0000002F0000002F0001E6
:100D5000002E0000002E0000002E0001002D0000DB
:100D6000002D0000002D0000002D0001002C0000CF
:100D7000002C0000002C0000002C0001002B0000C3
:100D8000002B0000002B0000002B0001002A0000B7
:100D9000002A0000002A0000002A000100290000AB
:100DA000002900000029000000290000002900019E
:100DB0000028000000280000002800000028000093
:100DC0000028000100270000002700000027000085
:100DD0000027000000270001002600000026000078
:100DE000002600000026000000260001002500006B
:100DF000002500000025000000250000002500005F
:100E00000025000100240000002400000024000050
:100E10000024000000240001002300000023000043
:100E20000023000000230000002300000023000036
:100E30000023000100220000002200000022000028
:100E4000002200000022000000220001002100001A
:100E5000002100000021000000210000002100000E
:100E600000210000002100010020000000200000FF
:100E700000200000002000000020000000200000F2
:100E80000020000000200001001F0000001F0000E3
:100E9000001F0000001F0000001F0000001F0000D6
:100EA000001F0001001E0000001E0000001E0000C8
:100EB000001E000000232C0000B82200005618007D
:100EC000003A0F0000B8080000B1040000710200F1
:100ED000003E010000656E7175657565696E67207D
:100EE00022004B494C4C45442E20005072696E74D0
:100EF00065722073746F707065642064756520740A
:100F00006F206572726F72732E2046697820746844
:100F100065206572726F7220616E64207573652042
:100F20004D39393920746F20726573746172742E73
:100F3000202854656D7065726174757265206973DF
:100F40002072657365742E20536574206974206166
:100F5000667465722072657374617274696E672954
:100F60000A004E6F20436865636B73756D20776967
:100F70007468206C696E65206E756D6265722C20D8
:100F80004C617374204C696E653A20006368656338
:100F90006B73756D206D69736D617463682C204C83
:100FA000617374204C696E653A20004C696E65204F
:100FB0004E756D626572206973206E6F74204C618E
:100FC0007374204C696E65204E756D6265722B31AD
:100FD0002C204C617374204C696E653A20004D31B1
:100FE00031300020496E76616C69642065787472D6
:100FF000756465722000000000C00000A0C0000001
:1010000000000000964300009B430000C843486F67
:101010006D696E67206661696C656400206E6F742F
:1010200020656E74657265642E0A0050726F746577
:10103000637465642050696E0A0020573A0020747A
:101040006F6F206C6F6E6720657874727573696F4F
:101050006E2070726576656E7465640A0020636F39
:101060006C6420657874727573696F6E2070726538
:1010700076656E7465640A0020573A00205A3A007B
:1010800020593A0020436F756E7420583A0020456D
:101090003A00205A3A0020593A00583A003A0043A0
:1010A00061703A004F66660A0046616465204865D3
:1010B000696768742000426564204C6576656C69D8
:1010C0006E6720004661696C656420746F20656EF0
:1010D00061626C6520426564204C6576656C696E62
:1010E000670A004D65736820426564204C6576652B
:1010F0006C20646174613A0A004D65736820706FFA
:10110000696E742063616E6E6F7420626520726513
:10111000736F6C7665640A004D34323120696E63FA
:101120006F727265637420706172616D657465724F
:101130002075736167650A00526573656E643A20B5
:101140000020746F6F206C6F6E6720657874727505
:1011500073696F6E2070726576656E7465640A00DF
:1011600020636F6C6420657874727573696F6E208C
:1011700070726576656E7465640A00454550524F1D
:101180004D206461746173697A65206572726F7253
:101190002E0A00290A002062797465733B2063726D
:1011A00063200053657474696E67732053746F72A3
:1011B0006564202800290A002062797465733B2049
:1011C00063726320002073746F72656420736574AA
:1011D00074696E67732072657472696576656420E0
:1011E0002800202863616C63756C61746564292133
:1011F0000A0020213D2000454550524F4D204352CA
:1012000043206D69736D61746368202D20287374A9
:101210006F7265642920002053697A653A2000497D
:101220006E6465783A2000204D61726C696E3D569F
:101230003535290A0028454550524F4D3D0045455A
:1012400050524F4D2076657273696F6E206D6973D1
:101250006D617463682000627573793A20706175FE
:1012600073656420666F7220696E7075740A00621F
:101270007573793A2070617573656420666F7220AA
:10128000757365720A00627573793A2070726F63C4
:10129000657373696E670A004B494C4C45442E20B8
:1012A000004B494C4C206361757365642062792062
:1012B000746F6F206D75636820696E616374697601
:1012C000652074696D65202D2063757272656E747A
:1012D00020636F6D6D616E643A20005072696E74A8
:1012E00065722068616C7465642E206B696C6C2873
:1012F000292063616C6C6564210A002020506C61B8
:101300006E6E657242756666657242797465733A8F
:1013100020002046726565204D656D6F72793A2018
:1013200000436F6D70696C65643A204665622032D7
:101330003520323032300A00207C20417574686FCD
:10134000723A20284561726C204D696C6C65722080
:101350003344204E65787573290A00323031382DB8
:1013600030382D303100204C617374205570646129
:101370007465643A2000312E312E390A004D6172B5
:101380006C696E0020536F667477617265205265D8
:101390007365740A00205761746368646F67205234
:1013A000657365740A002042726F776E206F7574E2
:1013B0002052657365740A002045787465726E6109
:1013C0006C2052657365740A00506F7765725570B2
:1013D0000A0073746172740A005761726E696E67F5
:1013E0003A20486F6D696E672042756D70204469C0
:1013F0007669736F72203C20310A000202040000FB
:10140000A0400000A0400000004000009743008082
:101410009D430000C8434572726F722077726974F1
:10142000696E6720746F20454550524F4D210A0068
:1014300007FFFFFFFFFF0001010101016265640A70
:10144000002C2073797374656D2073746F707065F0
:101450006421204865617465725F49443A20004206
:1014600065642068656174696E67206661696C6592
:10147000640048656174696E67206661696C6564C3
:101480000045312048656174696E67206661696C4A
:1014900065640048656174696E67206661696C65A2
:1014A000640070012C0190012701B0012201C001EC
:1014B0001D01F00118011002130130020E0160023B
:1014C000090190020401C002FF000003FA0040037A
:1014D000F5008003F000D003EB002004E600700468
:1014E000E100E004DC004005D700C005D200400662
:1014F000CD00D006C8008007C3003008BE00F00849
:10150000B900C009B400B00AAF00B00BAA00D00CFB
:10151000A500000EA000500F9B00C01096005012B6
:10152000910000148C00C0158700B0178200B0191C
:101530007D00D01B7800001E730040206E009022BA
:101540006900F024640040275F0090295A00E02BD6
:101550005500102E500020304B0010324600E03372
:10156000410090353C001037370070383200A03908
:101570002D00B03A2800A03B2300603C1E00103D27
:101580001900903D1400103E0F00703E0A00C03E4E
:101590000500003F0000403FFBFF803FF6FFC03FDB
:1015A000F1FF453120544845524D414C2052554E93
:1015B000415741590042454420544845524D414C01
:1015C0002052554E4157415900546865726D616C07
:1015D0002052756E61776179004531204572723A0B
:1015E000204D415854454D50004572723A204D41AE
:1015F0005854454D5020424544004D415854454DA6
:1016000050207472696767657265640045312045D2
:1016100072723A204D494E54454D50004572723A0F
:10162000204D494E54454D5020424544004D494EB1
:1016300054454D5020747269676765726564002077
:101640002F002042403A0020403A00545249474778
:1016500045524544006F70656E003A20007A5F6D18
:10166000696E00795F6D696E00785F6D696E00521A
:1016700065706F7274696E6720656E6473746F70E5
:10168000207374617475730A000A4D656173757215
:10169000656420706F696E74733A0A005A206F6631
:1016A000667365743A20004E756D20582C593A20A7
:1016B000332C330A0000000001000000010000800C
:1016C00000555555000000400033333300AAAA2AC4
:1016D000004992240000002000C7711C009999194C
:1016E00000D1451700555515003BB1130024491290
:1016F0000011111100000010000F0F0F00E3380E51
:101700000043790D00CCCC0C00C3300C00E8A20BD8
:101710000064210B00AAAA0A00703D0A009DD809A6
:1017200000427B090092240900DCD3080088880865
:10173000001042080000000800F0C107008787077A
:101740000075500700711C07003EEB0600A1BC06A7
:10175000006990060066660600703E060061180685
:101760000017F4050074D105005BB00500B29005C8
:1017700000627205005555050078390500B81E0550
:1017800000050505004EEC040087D40400A1BD044B
:101790000090A7040049920400C17D0400EE690492
:1017A00000C7560400444404005C320400082104CD
:1017B0000041100400000004003FF00300F8E003C3
:1017C0000026D20300C3C30300CCB503003AA8032C
:1017D000000A9B0300388E0300C08103009F75033D
:1017E00000D0690300505E03001D5303003448031A
:1017F00000913D03003333030016290300381F0313
:101800000097150300300C0300030303000BFA02DA
:101810000049F10200BAE802005CE002002DD802A3
:10182000002DD0020059C80200B0C0020031B90238
:1018300000DAB10200AAAA0200A0A30200BC9C0226
:1018400000FA9502005C8F0200DF880200828202AB
:1018500000457C02002776020027700200436A02DE
:10186000007C640200D05E02003F590200C85302AF
:1018700000FFFDFCFAF8F6F4F2F0EEECEAE9E7E539
:10188000E3E1E0DEDCDAD9D7D5D4D2D0CFCDCBCAF4
:10189000C8C7C5C3C2C0BFBDBCBAB9B7B6B4B3B27E
:1018A000B0AFADACAAA9A8A6A5A4A2A1A09E9D9CDC
:1018B0009A99989795949392908F8E8D8B8A898818
:1018C000878684838281807F7E7D7B7A7978777634
:1018D0007574737271706F6E6D6C6B6A6968676630
:1018E0006564636261605F5E5D5C5B5A595858571E
:1018F00056555453525150504F4E4D4C4B4A4A49F5
:1019000048474646454443424241403F3E3E3D3CB7
:101910003B3B3A393838373635353433323231306B
:10192000302F2E2E2D2C2B2B2A2929282727262510
:101930002524232322212120201F1E1E1D1C1C1BA9
:101940001B1A191918181716161515141313121235
:101950001111100F0F0E0E0D0D0C0C0B0A0A0909B8
:101960000808070706060505040403030202010030
:101970000000002100240027002A002D0030003341
:101980000001010000040107010A010000220025F6
:101990000028002B002E0031003400020100000559
:1019A0000108010B01000020002300260029002C63
:1019B000002F0032000001000003010601090105AB
:1019C000050505070508080808020202020A0A08B8
:1019D00008040404040101010101010101030303DE
:1019E0000303030303040707070C0C0C0C0C0C0C7B
:1019F0000C0202020206060606060606060B0B0B82
:101A00000B0B0B0B0B0102102020080810204010BC
:101A100020408002010201080402010102040810B2
:101A200020408080402010080402018004020180D0
:101A300040201008040201080402010102040810F9
:101A4000204080010204081020408000000A0B02A0
:101A5000090C0D0E0807030401000000000000003F
:101A60000000000000000000000000000000000076
:101A70000000000000000012111000000000000033
:101A80000000000000000000000000000000000056
:101A900000556E6B6E6F776E20636F6D6D616E6457
:101AA0003A2022002066697273740A005A005900B5
:101AB0005800486F6D6520006563686F3A0000004C
:101AC000A0420000A0420000A041000000004572BA
:101AD000726F723A0048617264636F646564204497
:101AE000656661756C742053657474696E677320E4
:101AF0004C6F616465640A00D0070000D0070000E5
:101B00006400000010270000000096430000964388
:101B100000004842000020420000A0420000A04215
:101B20000000C8430080DE4320286D6D290020207E
:101B30004D393030204B004C696E65617220416434
:101B400076616E63653A0A00204400204900202037
:101B50004D33303420500020440020490020204DD7
:101B60003330312050005049442073657474696EDD
:101B700067733A0A00205A00205900202047323962
:101B8000205333205800205A0020204D343230207A
:101B900053004D65736820426564204C6576656C22
:101BA000696E673A0A00205A0020590020204D3201
:101BB0003036205800486F6D65206F666673657417
:101BC0003A0A00204500205A0020590020580020E1
:101BD000540020530020204D323035205100204544
:101BE0003C6D61785F655F6A65726B3E0020583CB2
:101BF0006D61785F785F6A65726B3E20593C6D61FC
:101C0000785F795F6A65726B3E205A3C6D61785FE0
:101C10007A5F6A65726B3E00416476616E636564EB
:101C20003A20513C6D696E5F7365676D656E745FD8
:101C300074696D655F75733E20533C6D696E5F66B8
:101C4000656564726174653E20543C6D696E5F74B5
:101C5000726176656C5F66656564726174653E008D
:101C600020540020520020204D32303420500041BA
:101C70006363656C65726174696F6E2028756E6947
:101C800074732F7332293A20503C7072696E745FFE
:101C9000616363656C3E20523C726574726163746B
:101CA0005F616363656C3E20543C74726176656C61
:101CB0005F616363656C3E0A00204500205A002086
:101CC000590020204D3230312058004D6178696D27
:101CD000756D20416363656C65726174696F6E2018
:101CE00028756E6974732F7332293A0A00204500F3
:101CF000205A0020590020204D3230332058004D0A
:101D00006178696D756D206665656472617465736F
:101D10002028756E6974732F73293A0A00204500D4
:101D2000205A0020590020204D3932205800537489
:101D30006570732070657220756E69743A0A0020B0
:101D4000204D3230302044300A0020204D323030D7
:101D50002044002044697361626C65640A0046692E
:101D60006C616D656E742073657474696E67733A27
:101D7000002020473231202020203B004B642000EF
:101D800023646566696E652044454641554C545F41
:101D9000004B69200023646566696E6520444546F2
:101DA00041554C545F004B70200023646566696E9A
:101DB000652044454641554C545F005049442041FC
:101DC00075746F74756E652066696E697368656495
:101DD000212050757420746865206C617374204BE9
:101DE000702C204B6920616E64204B6420636F6E01
:101DF0007374616E74732066726F6D2062656C6FB0
:101E00007720696E746F20436F6E666967757261C3
:101E100074696F6E2E680A00504944204175746FD2
:101E200074756E65206661696C6564212074696DE6
:101E3000656F75740A00453120544845524D414C38
:101E40002052554E4157415900424544205448457F
:101E5000524D414C2052554E4157415900546865EE
:101E6000726D616C2052756E617761790045312029
:101E700048656174696E67206661696C65640042DB
:101E800065642068656174696E67206661696C6568
:101E9000640048656174696E67206661696C656499
:101EA00000504944204175746F74756E65206661F9
:101EB000696C6564212054656D706572617475721A
:101EC0006520746F6F20686967680A00204B643A68
:101ED0002000204B693A2000204B703A20000A2055
:101EE000436C617373696320504944200A00205495
:101EF000753A2000204B753A2000206D61783A2019
:101F000000206D696E3A200020643A20002062694A
:101F100061733A2000504944204175746F74756EA6
:101F200065206661696C6564212042616420657882
:101F3000747275646572206E756D6265720A005008
:101F40004944204175746F74756E652073746172B5
:101F5000740A0000D09011241FBECFEFD1E2DEBF83
:101F6000CDBF00E00CBF13E0A0E0B2E0E8E6F9E38B
:101F700001E00BBF02C007900D92A030B107D9F766
:101F80002EE0A0E0B3E001C01D92A73FB207E1F749
:101F90001FE0CBEADFE000E006C021970109802FB7
:101FA000FE010E945D9CCA3AD10780E00807A9F7AC
:101FB0000E94167C0C94B29C0C9400002F923F92CD
:101FC0004F925F926F927F928F929F92AF92BF9249
:101FD000CF92DF92EF92FF920F931F93CF93DF93F5
:101FE000CDB7DEB761970FB6F894DEBF0FBECDBF99
:101FF000F8948FEF9FEF90938900809388002AE0F8
:102000002983212C312C78948091260690912706E3
:10201000A0912806B0912906892B8A2B8B2B09F0D9
:10202000D9C18091D30E8823E1F01092D30E809114
:10203000D10E9091D20E892B09F4CCC11092DD05FE
:102040001092D20E1092D10E90917F0E8091800E40
:10205000981709F4BFC18091800E8F5F8F708093B5
:10206000800E8091D10E9091D20E892B09F4B2C1CD
:102070004091220650912306609124067091250616
:1020800080911E0690911F06A0912006B091210616
:102090000091140610E020E030E0841B950BA60BA5
:1020A000B70B081719072A073B0710F4D901C80115
:1020B000E82F840F951FA61FB71F809322069093C9
:1020C0002306A0932406B093250620918400309126
:1020D0008500225E3F4F4091F9055091FA056091CD
:1020E000FB057091FC058091E9059091EA05A091AE
:1020F000EB05B091EC05840F951FA61FB71F8093C9
:10210000F9059093FA05A093FB05B093FC05B7FD84
:102110001CC0889A8091480390914903A0914A037A
:10212000B0914B0340911D02042E000C550B660B21
:10213000770B840F951FA61FB71F809348039093BA
:102140004903A0934A03B0934B034091FD0550917E
:10215000FE056091FF05709100068091ED0590915C
:10216000EE05A091EF05B091F005840F951FA61F15
:10217000B71F8093FD059093FE05A093FF05B093D4
:102180000006B7FD1CC08E9A80914C0390914D03C0
:10219000A0914E03B0914F0340911E02042E000CFB
:1021A000550B660B770B840F951FA61FB71F8093E7
:1021B0004C0390934D03A0934E03B0934F03409173
:1021C0000106509102066091030670910406809109
:1021D000F1059091F205A091F305B091F405840FFB
:1021E000951FA61FB71F8093010690930206A09328
:1021F0000306B0930406B7FD22C080910B018095C1
:10220000887080930901419A809150039091510305
:10221000A0915203B091530340911F02042E000C71
:10222000550B660B770B840F951FA61FB71F809366
:10223000500390935103A0935203B09353034091E2
:102240000506509106066091070670910806809178
:10225000F5059091F605A091F705B091F805840F6A
:10226000951FA61FB71F8093050690930606A0939F
:102270000706B0930806B7FD3AC040915403509149
:1022800055036091560370915703C09020020C2CA7
:10229000000CDD08EE08FF084C0D5D1D6E1D7F1D56
:1022A0004093540350935503609356037093570320
:1022B0004091E5055091E6056091E7057091E805CC
:1022C000841B950BA60BB70B80930506909306060F
:1022D000A0930706B09308069091D8058091120646
:1022E00093FF02C0815001C08F5F809312068091DE
:1022F00084009091850082179307C8F38091F905B7
:102300009091FA05A091FB05B091FC05B7FD15C0B1
:102310004091E5055091E6056091E7057091E8056B
:10232000841B950BA60BB70B8093F9059093FA05C8
:10233000A093FB05B093FC0588988091FD059091D2
:10234000FE05A091FF05B0910006B7FD15C04091B4
:10235000E5055091E6056091E7057091E805841B5D
:10236000950BA60BB70B8093FD059093FE05A093EC
:10237000FF05B09300068E988091010690910206A9
:10238000A0910306B0910406B7FD1AC04091E5057F
:102390005091E6056091E7057091E805841B950B67
:1023A000A60BB70B8093010690930206A093030639
:1023B000B093040680910B018870809309014198C5
:1023C000E15041F08091840090918500821793073D
:1023D000C8F37FCE80912A0290912B02A0912C020B
:1023E000B0912D02892B8A2B8B2B09F091C0809103
:1023F0001306882309F453C0809022069090230688
:10240000A0902406B0902506C0900E06D0900F062E
:10241000E0901006F090110640911206C814D904FD
:10242000EA04FB0480F48091DE059091DF052091A1
:10243000E2053091E3052817390728F4415040930D
:102440001206019714C08C149D04AE04BF04E0F47E
:102450008091DE059091DF052091E0053091E10546
:102460008217930788F44F5F40931206019690936A
:10247000DF058093DE05409126025091270260918E
:102480002802709129020EC08FEF9FEFDC0180932C
:10249000260290932702A0932802B09329024FEFBF
:1024A0005FEFBA018091120687FD02C0169A01C043
:1024B000169880918400909185004E962091120686
:1024C0002223F1F0149A209184003091850028177E
:1024D0003907C8F32091120627FF02C02F5F01C001
:1024E000215020931206149820911206222331F3D2
:1024F000209184003091850028173907C8F3DDCF7B
:1025000040932A0250932B0260932C0270932D0269
:102510008091260690912706A0912806B091290661
:10252000892B8A2B8B2B09F08EC6A091D10EB091EE
:10253000D20E109711F40C94381B809022069090C4
:102540002306A0902406B090250640911E065091C7
:102550001F06609120067091210684169506A60636
:10256000B706D8F01092DD051092D20E1092D10E5F
:1025700090917F0E8091800E981711F40C94381B67
:102580008091800E8F5F8F708093800E40EDC42EFF
:1025900047E0D42EE12CF12C27C440911A0650912B
:1025A0001B0660911C0670911D06481559056A05A9
:1025B0007B0508F4A6C1409116065091170660915C
:1025C000180670911906D6960D911D912D913C918A
:1025D000D997401751076207730708F073C1411577
:1025E00051056105710549F48090D9059090DA058F
:1025F000A090DB05B090DC056BC1D12CEA80842E65
:10260000952F862FFB800C811D81FE81EF813885FF
:102610002985E091400EE89D112DFF273091410E54
:10262000389D100DF11D1090420E189CF00DE99F81
:10263000100DF11D399FF00DE89FF00DF12E0F2FB9
:10264000F19EE12D33272227FF9EE00D311D2D1D28
:10265000019FE00D311D2D1D0F9F300D211DF32E0B
:10266000022FF19EE12C33272227FF9EE00C311D23
:102670002D1D019FE00C311D2D1D0F9F300D211DC3
:10268000F32E022FEE278090D9059091DA058091E4
:10269000DB05009036060D2809F483C03091320620
:1026A0003F9DE1198D089D098D09209133062F9DCD
:1026B000E01981089D098D09E0903406EF9C80188F
:1026C00091098D09309FE01981089D098D09209F8E
:1026D000801891098D09E09E90198109F19EE12CE5
:1026E00033272227FF9EE00C311D2D1D019FE00C9A
:1026F000311D2D1D0F9F300D211DF32E022F309106
:102700002E063F9DE10D8D1C9D1D8D1D20912F06D8
:102710002F9DE00D811C9D1D8D1DE0903006EF9CCE
:10272000800C911D8D1D309FE00D811C9D1D8D1D08
:10273000209F800C911D8D1DE09E900D811DF19EAE
:10274000E12C33272227FF9EE00C311D2D1D019F18
:10275000E00C311D2D1D0F9F300D211DF32E022F7A
:1027600030912A063F9DE1198D089D098D09209120
:102770002B062F9DE01981089D098D09E0902C06FC
:10278000EF9C801891098D09309FE01981089D09FF
:102790008D09209F801891098D09E09E901981096B
:1027A00082C0309132063F9DE10D8D1C9D1D8D1D17
:1027B000209133062F9DE00D811C9D1D8D1DE09005
:1027C0003406EF9C800C911D8D1D309FE00D811C07
:1027D0009D1D8D1D209F800C911D8D1DE09E900DD7
:1027E000811DF19EE12C33272227FF9EE00C311D35
:1027F0002D1D019FE00C311D2D1D0F9F300D211D42
:10280000F32E022F30912E063F9DE1198D089D0970
:102810008D0920912F062F9DE01981089D098D09B2
:10282000E0903006EF9C801891098D09309FE019E7
:1028300081089D098D09209F801891098D09E09ECE
:1028400090198109F19EE12C33272227FF9EE00C8D
:10285000311D2D1D019FE00C311D2D1D0F9F300DD1
:10286000211DF32E022F30912A063F9DE10D8D1C74
:102870009D1D8D1D20912B062F9DE00D811C9D1D02
:102880008D1DE0902C06EF9C800C911D8D1D309FBE
:10289000E00D811C9D1D8D1D209F800C911D8D1DA7
:1028A000E09E900D811D1124EA82FB820C831D8322
:1028B000FE83EF8338872987912C992AA12CB12C8C
:1028C000A82A06C0D2968D909D90AD90BC90D597C9
:1028D0000090150604C0880C991CAA1CBB1C0A9405
:1028E000D2F785EB9EE0FF24F394FC01059115914E
:1028F00025913491081519052A053B0508F41BC5D7
:1029000025C540900E0650900F06609010067090FE
:102910001106481459046A047B0408F0CAC1809166
:102920000D06811120C0FD01EE5BFF4FE080F180BC
:102930000281138178962081318142815381D29620
:102940006D917D918D919C91D5970E94B96221E006
:1029500020930D06E091D10EF091D20E82A993A999
:10296000A4A9B5A98EC14091090650910A066091AB
:102970000B0670910C06DA960D911D912D913C91EC
:10298000DD97401751076207730708F073C14115BF
:1029900051056105710549F48091D9059091DA05D9
:1029A000A091DB05B091DC056CC1F0E0EA85842FD5
:1029B000352F262FAB857C856D855E854F85988963
:1029C000B9894091400E489F612D55279091410E45
:1029D000989F600D511D1090420E189E500D439F00
:1029E000600D511D939F500D429F500DA62F752FC6
:1029F000A69F412D9927BB27A59F400D911DBF1F65
:102A0000769F400D911DBF1F759F900DB11DA92F81
:102A10007B2FA69FE12D9927BB27A59FE00D911D38
:102A2000BF1F769FE00D911DBF1F759F900DB11DBB
:102A3000A92F7B2F44278091D9053091DA05209169
:102A4000DB05009036060F2A09F483C09091320608
:102A50009A9F41198F0B3F0B2F0BB0913306BA9FF2
:102A6000401981093F0B2F0BE0913406EA9F801932
:102A700031092F0B979F401981093F0B2F0BB79FEF
:102A8000801931092F0BE79F30192109A69FE12DED
:102A90009927BB27A59FE00D911DBF1F769FE00DD5
:102AA000911DBF1F759F900DB11DA92F7B2F909178
:102AB0002E069A9F410D8F1F3F1F2F1FB0912F068B
:102AC000BA9F400D811D3F1F2F1FE0913006EA9FE6
:102AD000800D311D2F1F979F400D811D3F1F2F1F00
:102AE000B79F800D311D2F1FE79F300D211DA69F21
:102AF000E12D9927BB27A59FE00D911DBF1F769F54
:102B0000E00D911DBF1F759F900DB11DA92F7B2F4B
:102B100090912A069A9F41198F0B3F0B2F0BB09172
:102B20002B06BA9F401981093F0B2F0BE0912C0611
:102B3000EA9F801931092F0B979F401981093F0B9C
:102B40002F0BB79F801931092F0BE79F30192109EF
:102B500082C0909132069A9F410D8F1F3F1F2F1FF9
:102B6000B0913306BA9F400D811D3F1F2F1FE0918A
:102B70003406EA9F800D311D2F1F979F400D811D48
:102B80003F1F2F1FB79F800D311D2F1FE79F300D57
:102B9000211DA69FE12D9927BB27A59FE00D911D23
:102BA000BF1F769FE00D911DBF1F759F900DB11D3A
:102BB000A92F7B2F90912E069A9F41198F0B3F0BC7
:102BC0002F0BB0912F06BA9F401981093F0B2F0B95
:102BD000E0913006EA9F801931092F0B979F401929
:102BE00081093F0B2F0BB79F801931092F0BE79FEE
:102BF00030192109A69FE12D9927BB27A59FE00D3C
:102C0000911DBF1F769FE00D911DBF1F759F900DF9
:102C1000B11DA92F7B2F90912A069A9F410D8F1FDE
:102C20003F1F2F1FB0912B06BA9F400D811D3F1FE4
:102C30002F1FE0912C06EA9F800D311D2F1F979FBB
:102C4000400D811D3F1F2F1FB79F800D311D2F1F6E
:102C5000E79F300D211D1124EA87AB877C876D87A4
:102C60005E874F87988BB98B90E0932BA0E0B0E004
:102C7000A22B07C0A65ABF4F8D919D910D90BC917C
:102C8000A02D0090150604C0880F991FAA1FBB1F16
:102C90000A94D2F725EB3EE011E0F90145915591F8
:102CA00065917491481759076A077B0708F4D2C3E6
:102CB000DEC3809112068823E1F0FD01E85BFF4F3F
:102CC0004081518160E070E000912602109127025E
:102CD000209128023091290240175107620773079B
:102CE00041F010922A0210922B0210922C021092A4
:102CF0002D02409122025091230260912402709192
:102D0000250277FF69C0AE5ABF4FCD90DD90ED90A0
:102D1000FC900090150604C0CC0CDD1CEE1CFF1CC2
:102D20000A94D2F785EB9EE021E0FC014591559194
:102D3000659174914C155D056E057F0558F4F69408
:102D4000E794D794C794220F0496A1EDBEE0A8178C
:102D5000B90759F720931406B0E2CB16D104E10469
:102D6000F10428F450E2C52ED12CE12CF12C50E2D4
:102D7000C51AD108E108F108C11478E0D706E104CA
:102D8000F10408F42EC4A4E0DA9EC00111248B548F
:102D9000954FFC01329625913491BC2D6627B39F47
:102DA000A001B29F410D561F0694461F561F1124C5
:102DB00060E070E0FC0125913491C901A0E0B0E031
:102DC000841B950BA60BB70B8093220290932302D2
:102DD000A0932402B0932502C0902202D090230237
:102DE000E0902402F09025028091D10E9091D20EB5
:102DF000892B09F020C20E943B639093D20E8093EE
:102E0000D10E892B09F417C2E091D10EF091D20EA8
:102E1000808183FF3EC085899689A789B08D809384
:102E2000480390934903A0934A03B0934B03818DC9
:102E3000928DA38DB48D80934C0390934D03A093FA
:102E40004E03B0934F03858D968DA78DB0A18093CF
:102E5000500390935103A0935203B093530381A165
:102E600092A1A3A1B4A18093540390935503A0937E
:102E70005603B093570390917F0E8091800E981760
:102E800009F4B9CF8091800E8F5F8F708093800E90
:102E9000B2CF458856886788708C81E04114510410
:102EA0006104710409F480E0818C928CA38CB48C51
:102EB00081149104A104B10409F08260458D568DFE
:102EC000678D70A1411551056105710509F0846098
:102ED0008093DD051092090610920A0610920B06E7
:102EE00010920C06109216061092170610921806F1
:102EF00010921906DF01AE5ABF4F8D919D910D9032
:102F0000BC91A02DF12C83322CE29207A105B105D2
:102F100060F4880F991FAA1FBB1F83323CE29307FE
:102F2000A105B10510F4F394EECFF0921506CF2C65
:102F300085A196A1A7A1B0A50F2C04C0880F991F49
:102F4000AA1FBB1F0A94D2F780931E0690931F06F8
:102F5000A0932006B0932106002711279801081B93
:102F6000190B2A0B3B0B00930506109306062093C2
:102F7000070630930806009301061093020620937B
:102F80000306309304060093FD051093FE0520937D
:102F9000FF05309300060093F9051093FA0520937E
:102FA000FB053093FC05440C551C661C771C4092B5
:102FB000E9055092EA056092EB057092EC05880CE9
:102FC000991CAA1CBB1C8092ED059092EE05A09264
:102FD000EF05B092F005440F551F661F771F409311
:102FE000F1055093F2056093F3057093F40541A148
:102FF00052A163A174A1440F551F661F771F409310
:10300000F5055093F6056093F7057093F805880F62
:10301000991FAA1FBB1F8093E5059093E605A09317
:10302000E705B093E805109222061092230610924D
:1030300024061092250682A593A5A4A5B5A50F2C5C
:1030400004C0880F991FAA1FBB1F0A94D2F7809350
:103050001A0690931B06A0931C06B0931D0686A526
:1030600097A5A0A9B1A904C0880F991FAA1FBB1FCB
:10307000FA94D2F780930E0690930F06A093100651
:10308000B093110681A58093E405DF01A95BBF4FD2
:103090009C9190931306992339F115962D913C91AB
:1030A00011973093E3052093E20512972D913C91FF
:1030B00011973093E1052093E00510922A021092B7
:1030C0002B0210922C0210922D0212972D913C91FE
:1030D000A90160E070E040932602509327026093BC
:1030E0002802709329020BC02FEF3FEFA901209314
:1030F0002602309327024093280250932902EA5B6C
:10310000FF4F90812091D80592130AC0209121028F
:1031100030E0482F082E000C550B4217530731F0B2
:103120009093D805809321020E940B630E94D66180
:103130008FEF9FEFDC018093220290932302A093F4
:103140002402B0932502E091D10EF091D20EDF015E
:10315000DE96ED90FD900D911C9122A933A944A912
:1031600055A9EA5AFF4F60817181828193810E9443
:10317000B96210920D06E091D10EF091D20EEA5A8A
:10318000FF4F80809180A280B38004C0880C991C7E
:10319000AA1CBB1CCA94D2F785EB9EE021E0FC017F
:1031A0004591559165917491481559056A057B05BE
:1031B00058F4B694A79497948794220F0496E1ED5F
:1031C000FEE0E817F90759F720931406F0E28F168E
:1031D0009104A104B10428F4B0E28B2E912CA12C0F
:1031E000B12C90E2891A9108A108B1088114A8E0D5
:1031F0009A06A104B10408F418C2B4E09B9EC00171
:1032000011248B54954FFC01329625913491E82D71
:103210006627E39FA001E29F410D561F0694461FBB
:10322000561F1124FC01C590D490E12CF12CC41A36
:10323000D50AE108F108C0922606D0922706E0924E
:103240002806F09229060091260610912706209163
:1032500028063091290640912A0250912B02609154
:103260002C0270912D027801F22FE32F40175107A5
:103270006207730718F47A01F62FE72FC701AF2F03
:10328000BE2F0097F1E0AF07B10520F08FEF9FEF61
:10329000A0E0B0E0081B190B2A0B3B0B009326069D
:1032A0001093270620932806309329064F3F2FEFCF
:1032B00052076207720761F0481B590B6A0B7B0BC0
:1032C00040932A0250932B0260932C0270932D029C
:1032D000F8942091840030918500205F3F4F498110
:1032E00041504983442341F0280E391E22163306EB
:1032F00010F40C94031001C019013092890020923F
:103300008800789461960FB6F894DEBF0FBECDBFEB
:10331000DF91CF911F910F91FF90EF90DF90CF90B1
:10332000BF90AF909F908F907F906F905F904F90E5
:103330003F902F900895B694A79497948794FF0C8C
:103340000496EEE0813D9E0709F0CFCAF092140684
:10335000F0E28F169104A104B10428F430E2832E28
:10336000912CA12CB12C90E2891A9108A108B108E6
:103370008114E8E09E06A104B104F8F0F4E09F9EF9
:10338000C00111248B54954FFC0132962591349144
:10339000F82DEE27F39F8001F29F010D1E1F06946A
:1033A0000E1F1E1F1124FC01C590D490E12CF12C9E
:1033B000C01AD10AE108F10822C0950184013695AE
:1033C000279517950795F801EC7FCF018B54994FFE
:1033D000FC01C590D490FC01329625913491E82DE2
:1033E000E770E29FC001E39F900D112423E09695C2
:1033F00087952A95E1F7C81AD90AE12CF12C4C0DD2
:103400005D1D6E1D7F1D4093160650931706609339
:10341000180670931906909113068091120699234D
:1034200009F471C0882309F4DFCCA85BBF4F8D91EC
:103430009C91A0E0B0E0409126025091270260915B
:1034400028027091290284179507A607B70709F08B
:103450005DC0CACCB695A79597958795110F2C5F3F
:103460003F4F41ED5EE04217530709F016CC109331
:10347000140680329105A105B10520F480E290E0A8
:10348000A0E0B0E08097A109B109811538E0930769
:10349000A105B10508F443C044E0949F90011124B4
:1034A0002B54354FF901329645915491EE27859F63
:1034B000B001849F610D7E1F06946E1F7E1F112434
:1034C000F901C590D490E12CF12CC61AD70AE10875
:1034D000F1088091090690910A06A0910B06B0911F
:1034E0000C068C0D9D1DAE1DBF1D8093090690938B
:1034F0000A06A0930B06B0930C0680911306811167
:1035000030C080911206882309F46ECC10922A02F2
:1035100010922B0210922C0210922D0265CCAC015D
:10352000BD017695679557954795FA01EC7F9F0108
:103530002B54394FF901C590D490F9013296459139
:1035400054918770849F9001859F300D1124F3E082
:1035500036952795FA95E1F7C21AD30AE12CF12C9A
:10356000B8CF410E511C611C711C8091D10E9091FD
:10357000D20E481459046A047B04D8F42091120630
:10358000222309F431CCFC01E85BFF4F208131811B
:10359000A90160E070E000912602109127022091BD
:1035A000280230912902401751076207730709F476
:1035B0001BCC10922A0210922B0210922C02109215
:1035C0002D02FC01E85BFF4F80819181A0E0B0E01B
:1035D0008093260290932702A0932802B093290299
:1035E00003CCD701C601B695A79597958795FC01A1
:1035F000EC7FCF018B54994FFC0125913491FC0154
:103600003296459154916C2D6770649FC001659FFF
:10361000900D112443E0969587954A95E1F7281B74
:10362000390BC901A0E0B0E0CFCBD501C401B695FC
:10363000A79597958795FC01EC7FCF018B54994F07
:10364000FC01C590D490FC01329625913491482D0F
:103650004770429FC001439F900D1124A3E09695AF
:103660008795AA95E1F7C81AD90AE12CF12CE3CD88
:1036700080EDC82E87E0D82EE12CF12CBCCB8091B8
:10368000280790912907981759F0E92FF0E0E8559D
:10369000F94F80819F5F9F779093290790E008956D
:1036A0008FEF9FEF0895FF920F931F93CF93DF93B8
:1036B000FC0120812B3319F1D091D005D430F8F4DE
:1036C000F62EBC01C09137060C2F10E0F0E6CF9F1C
:1036D000C0011124825B9B4F0E94929CF801ED5B1C
:1036E000FB4FF082CF5FC43018F4C093370602C09E
:1036F00010923706DF5FD093D00581E001C080E0F3
:10370000DF91CF911F910F91FF900895EF92FF925B
:103710001F93CF93DF9382E2E82E83E0F82E13E02D
:10372000C0E0D0E020E030E0A901F701EC0FFD1F80
:1037300060817181828193810E94289581110CC0E2
:103740002496CC30D10571F711508CE0E80EF11CB5
:103750001111E6CF80E001C081E0DF91CF911F9190
:10376000FF90EF900895CF939091600E9817C9F055
:10377000C82F0E940835C11112C04EE65EE06AE60D
:103780007EE086E69EE00E94B16080E08093600E5D
:10379000882339F086E69EE0CF910C94DE63B6DF95
:1037A000F5CFCF910895CF92DF92EF920F931F93B1
:1037B000CF93DF93CDB7DEB760970FB6F894DEBF37
:1037C0000FBECDBFE090570EE6E6FEE08085918506
:1037D000A285B385448155816681778100811181FD
:1037E0002281338109831A832B833C834D835E833B
:1037F0006F83788789879A87AB87BC871D861E86EB
:103800001F86188AAE01475F5F4FBE016B5F7F4F17
:10381000CE0101960E94B160CE010D966C010AE4C2
:1038200012E022E73EE0AE01475F5F4FBE016B5FF3
:103830007F4F0C970E94E92460960FB6F894DEBF84
:103840000FBECDBFDF91CF911F910F91EF90DF9011
:10385000CF9008950F931F93CF93DF9394E0899FA8
:10386000E00111248E010F501C4FFE01EB51FC4F63
:10387000DE01A85ABC4F2D913D914D915C91608124
:103880007181828193810E947499F80160837183B0
:1038900082839383FE01EA50F04F85919591A59123
:1038A000B491FE01E350FC4F80839183A283B383E4
:1038B000FE01EE5FFF4E85919591A591B491C95F90
:1038C000DD4F88839983AA83BB83DF91CF911F91BA
:1038D0000F9108950F931F93CF93DF93CDB7DEB76A
:1038E0002C970FB6F894DEBF0FBECDBFE6E6FEE024
:1038F00080859185A285B3854481558166817781D4
:10390000008111812281338109831A832B833C83B7
:103910004D835E836F83788789879A87AB87BC875F
:10392000AE01475F5F4FBE016B5F7F4FCE010196D7
:103930000E94B16022E73EE0AE01475F5F4FBE01EB
:103940006B5F7F4FCE0101960E9499652C960FB652
:10395000F894DEBF0FBECDBFDF91CF911F910F91C5
:1039600008952F923F924F925F926F927F929F9213
:10397000AF92BF92CF92DF92EF92FF920F931F937D
:10398000CF93DF93CDB7DEB764970FB6F894DEBF61
:103990000FBECDBF1A012B01922EF32EC82ED12CB3
:1039A000F601E759FA4FE491AA24A3941E160CF4E9
:1039B000A12CBB24B39420E030E0A901C201B101E5
:1039C0000E949A9B18160CF0B12CCC0CDD1CCC0C70
:1039D000DD1CC6018A59914F3C01FC011082118205
:1039E0001282138277DFF301208231824282538276
:1039F000E090570E20E030E0A901B801892D9F2DFD
:103A00000E94289581110AC0F601E254F54E859175
:103A10009591A591B4918C019A2EFB2EC801A92DE8
:103A2000BF2D898B9A8BAB8BBC8B80916E0E909146
:103A30006F0EA091700EB091710E40916A0E509170
:103A40006B0E60916C0E70916D0E0091660E109170
:103A5000670E2091680E3091690E09831A832B83BB
:103A60003C834D835E836F83788789879A87AB8792
:103A7000BC871D861E861F86188AAE01475F5F4F72
:103A8000BE016B5F7F4FCE0101960E94B160CE01F7
:103A90000D966C018E010F5E1F4F22E73EE0AE01D6
:103AA000475F5F4FBE016B5F7F4F0C9792D70E94BD
:103AB0000835AB1459F08091CE05882319F0109287
:103AC000CE0504C08EE090E10E94D24E64960FB6FF
:103AD000F894DEBF0FBECDBFDF91CF911F910F9144
:103AE000FF90EF90DF90CF90BF90AF909F907F902E
:103AF0006F905F904F903F902F9008958091C703F3
:103B00009091C803009731F04AE050E060E070E027
:103B10000C947C9260E070E0CB010895EFDF97FD9C
:103B20000AC0ECDF6F3F71058105910509F02CF4A7
:103B3000E5DF862F089580E008958FEF0895809146
:103B4000C7039091C803892B31F0E8DF91E0811120
:103B500003C090E001C091E0892F08950F931F9357
:103B6000CF938091C7039091C803009711F1FC0196
:103B70008F01C1912C2F2F7DA9F0C53411F0C536CE
:103B8000B9F7F801108260E070E08091C70390916E
:103B9000C8030E942991F801C083562F472F382F60
:103BA000292F0BC060E070E0CF911F910F910C9412
:103BB000299150E040E030E020E0652F742F832F02
:103BC000922FCF911F910F91089581548A3108F05F
:103BD00042C0E82FF0E040911A0350911B0360911E
:103BE0001C0370911D0304C0769567955795479502
:103BF0008A95D2F7842F817040FF2FC0E050FD4F8F
:103C00009081992309F1E091450EF091460EE90F5C
:103C1000F11D908120ED290F2A3098F09E3211F489
:103C200091810CC09D3211F09B3271F4918120ED95
:103C3000290F2A3030F09E3239F4928190539A3015
:103C400018F42E2F9F2F02C020E090E02093C7038E
:103C50009093C803089580E008950895B6DF8823FF
:103C600041F081E02091C7033091C803232B09F470
:103C700080E008959F92AF92BF92CF92DF92EF9231
:103C8000FF920F931F93CF93DF938EE4A82E82E0D1
:103C9000B82E07E41EE0C6E6DEE091EFC92E93E001
:103CA000D92E27E4E22E24E0F22E912CF501819109
:103CB0005F018BDF882301F151DFF70120812111A2
:103CC00004C020914B04222339F0288139814A8194
:103CD0005B810E9474990AC0F3E09F1639F0F601E7
:103CE00020813181428153810E947399F801608360
:103CF00071838283938309C088819981AA81BB8162
:103D0000F80180839183A283B38393940C5F1F4F48
:103D10002496F4E0CF0ED11C2FEFE21AF20A84E0D1
:103D20009812C4CF86E49ADF8823B9F017DF20E029
:103D300030E0A9010E949A9B18167CF40FDF20E066
:103D400030E040E752E40E94509A60934A02709338
:103D50004B0280934C0290934D02DF91CF911F91C3
:103D60000F91FF90EF90DF90CF90BF90AF909F901A
:103D7000089580E1E6E6FEE0A7E4BEE001900D9242
:103D80008A95E1F708958F929F92AF92BF92DF924A
:103D9000EF92FF920F931F93CF93DF9300D01F9268
:103DA000CDB7DEB7182F809113048770873051F498
:103DB0008FE454DF882311F0C2DE02C08FE405DFF8
:103DC0008111BBC00E940835D090600E80E0CBDC32
:103DD00080914A0290914B02A0914C02B0914D0209
:103DE00080939F069093A006A093A106B093A2068D
:103DF000809148029091490290939E0680939D067F
:103E000084E690E0909349028093480281E0809399
:103E10009503111118C088E5D8DEF82E89E5D5DEA6
:103E2000082F8AE5D2DEE82EF11006C0011109C084
:103E3000811107C0F02E0CC0002319F0F02E182FAE
:103E400008C010E006C0FF24F39401E0EE24E394E0
:103E500011E08FDF82E502DF882359F07FDE4B011E
:103E60005C0120E030E0A9010E942895882371F1CF
:103E700006C0812C912C80EAA82E80E4B82E111166
:103E800004C0F11002C0002391F180924F0E909275
:103E9000500EA092510EB092520EA5019401609165
:103EA0006E0E70916F0E8091700E9091710E0E9447
:103EB000289587FF0BC019821A821B821C82BE01C3
:103EC0006F5F7F4F8FE49EE00E947768111105C0FD
:103ED000F11003C0011106C00AC080E00E946F4BC0
:103EE0001123C1F381E00E946F4B111102C0EE203B
:103EF00019F082E00E946F4BEDDC80919403809377
:103F000095038D2D30DC80919F069091A006A091A5
:103F1000A106B091A20680934A0290934B02A0930F
:103F20004C02B0934D0280919D0690919E06909315
:103F30004902809348020E94CC3A0F900F900F9054
:103F40000F90DF91CF911F910F91FF90EF90DF9035
:103F5000BF90AF909F908F9008959091C00095FF73
:103F6000FCCF8093C6000895CF93DF93EEECFAE187
:103F70008491EF012196882319F0EFDFFE01F8CF3D
:103F8000EBE2F0E18491EF012196882319F0E5DF5F
:103F9000FE01F8CFDF91CF910895CF93DF93ECE14D
:103FA000F0E18491EF012196882319F0D6DFFE011C
:103FB000F8CFDF91CF910895CF92DF92EF92FF92E9
:103FC0000F931F93CF93DF938091D005843008F037
:103FD0001CC155DBAC0197FD18C1982F2091760EBE
:103FE0003091770E8A3019F09D3009F0DDC01092C3
:103FF0009C062115310519F40E940F58E5CFF901EF
:10400000E45CF94F10821092770E1092760ECCE39A
:10401000D6E0FE018191803211F4EF01FACF8E34A7
:1040200009F07EC0209709F47BC06EED7FE0CE01E1
:104030000E94E0948C01892B41F06EE470E0CE0187
:1040400004960E947E9C009709F4CE014AE050E05D
:1040500060E070E001960E947C9260933806709355
:10406000390680933A0690933B06C090780ED09024
:10407000790EE0907A0EF0907B0E2FEFC21AD20AE2
:10408000E20AF20A6C157D058E059F0529F0012BC9
:1040900019F48BEA9FE02AC06AE270E0CE010E9428
:1040A000A79C9C01009701F1982F9C1B10E099237D
:1040B00039F09150FE01E90FF11D80811827F7CFEB
:1040C0004AE050E060E070E0C90101960E947C92F5
:1040D000012F10E020E030E060177107820793079E
:1040E00079F08CE89FE002C082E69FE0DF91CF91FB
:1040F0001F910F91FF90EF90DF90CF900C94756718
:104100008091380690913906A0913A06B0913B060D
:104110008093780E9093790EA0937A0EB0937B0ED5
:1041200080911B0281111EC067E470E0CE010E94E5
:104130007E9C0097B9F04AE050E060E070E00196A4
:104140000E947C92643071058105910558F4EBEE74
:10415000FEE084918F010F5F1F4F882319F0FDDE71
:10416000F801F7CF69EE72E0CE010E94899C892B9D
:1041700011F410921C026EEE72E0CE010E94899C36
:10418000892B21F482EE9EE00E94D24E63EF72E012
:10419000CE010E94899C892B11F40E945A3A61E059
:1041A0008CE396E080DA10CF2F3531050CF00CCF80
:1041B0009C35B9F464DA97FD07CF20919C06211154
:1041C00003CF2091760E3091770EA9014F5F5F4F9C
:1041D0005093770E4093760EF901E45CF94F80839B
:1041E000F3CE9B3319F481E080939C0680919C066A
:1041F0008111EACEC90101969093770E8093760ED5
:10420000F901E45CF94F4083DFCEDF91CF911F913C
:104210000F91FF90EF90DF90CF900895BF92CF92D3
:10422000DF92EF92FF920F931F93CF93DF93CDB75F
:10423000DEB76E970FB6F894DEBF0FBECDBF6091AC
:104240004603709147036115710551F14DE150E04E
:10425000CE0101967C010E94D1941E8EF7018F0140
:104260000E191F09B190BB2021F19AE0B912F7CFC6
:1042700020C0B70185ED9EE00E94C36382E26DDE3F
:104280008AE06BDEBB2051F10F5F1F4F8091460328
:1042900090914703080F191F10934703009346039B
:1042A00081E02091460330914703232BD1F480E035
:1042B00018C0F701E00FF11F108260E0C701F3D9C9
:1042C000882371F3E8EBFAE184916F019FEFC91A3B
:1042D000D90A882371F241DEF601F6CF00E010E042
:1042E000DBCF6E960FB6F894DEBF0FBECDBFDF9169
:1042F000CF911F910F91FF90EF90DF90CF90BF90E3
:1043000008958F929F92AF92BF92EF92FF920F9378
:104310001F93CF93DF93CDB7DEB7A0970FB6F89476
:10432000DEBF0FBECDBF611571058105910589F115
:1043300000E0842E912CA12CB12C102FEE24E394BC
:10434000F12CEC0EFD1EE00EF11C07FDFA94A50108
:1043500094010E941699F7016083B901CA010F5FA9
:10436000611571058105910541F71F3F21F1E1E0DC
:10437000F0E0EC0FFD1FE10FF11D17FDFA958081B4
:104380008A3010F097E301C090E3890FE6DD115009
:10439000ECCF80E3A0960FB6F894DEBF0FBECDBF82
:1043A000DF91CF911F910F91FF90EF90BF90AF9051
:1043B0009F908F90D2CDA0960FB6F894DEBF0FBE1F
:1043C000CDBFDF91CF911F910F91FF90EF90BF90E4
:1043D000AF909F908F900895EF92FF920F931F934D
:1043E000CF93DF937C0184E539DCD82F882321F13A
:1043F00095DBC82F1816E4F4E8EBFAE184918F01FD
:104400000F5F1F4F882319F0A8DDF801F7CF8DE467
:10441000A4DDB70180E090E04AE073DF6C2FCC0FA1
:10442000770B83EE9FE00E94AA638AE096DD08C0C6
:1044300080933104D0E004C08091570E8093310402
:104440008D2FDF91CF911F910F91FF90EF900895E5
:10445000CF92DF92EF92FF926B017C0197FF0AC02F
:104460008DE27BDDF094E094D094C094C11CD11C0B
:10447000E11CF11C4AE0C701B601FF90EF90DF900C
:10448000CF903FCF2F923F924F925F926F927F9249
:104490008F929F92AF92BF92CF92DF92EF92FF9254
:1044A0000F931F93CF93DF93CDB7DEB76E970FB601
:1044B000F894DEBF0FBECDBF8DE690E08DDF811199
:1044C000D4C180914D0483FDD0C183E5C7DB8E8BC1
:1044D000811105C082E5C2DB182F8823B9F03EDBCD
:1044E0000E94B89A70936A036093690380E00E9407
:1044F000885334DB20E030E04AEA52E40E942895F9
:1045000018160CF4AFC10E94E87911E00E940E6504
:10451000112309F4AAC181E080931C02209158075D
:104520003091590740915A0750915B072F8B388F74
:10453000498F5A8FE12CF12C00E81FEB198A1D8658
:104540001E861F86188A1A8A1B8A1C8A1D8A1C8648
:104550001B8E3CE33C8F4CE14D8F56E45E8F1C82FA
:104560001D821E821F826091690370916A03072E6B
:10457000000C880B990B0E942E951B014C01970192
:10458000A8010E942895882341F1609158077091F5
:10459000590780915A0790915B07AE89A11109C014
:1045A000B1E0BC879101A4010E949A9B1816CCF03F
:1045B00017C09101A4010E949A9B18168CF4809157
:1045C0001C02882309F451C18FEF89838A838B836E
:1045D000CE0101960E94AE6148C11701480101C099
:1045E0001C860E94C07B6B017C01DC01CB012A8907
:1045F0003B894C895D89821B930BA40BB50BB7FDDE
:104600003AC0D701C60188519C4FAF4FBF4F8A8B2C
:104610009B8BAC8BBD8B0E948252EAE3F0E18491CC
:104620008F010F5F1F4F882319F097DCF801F7CF38
:104630002C813D814E815F81211531054105510558
:10464000B1F0DA01C901805F984DAF4FBF4FBC0197
:10465000CD016C197D098E099F0928EE33E040E0F9
:1046600050E00E941699CA01B901F2DE02C08FE340
:1046700074DC8AE072DC0E94004F0E94C07B609371
:104680003707709338078093390790933A07A090C3
:104690005807B090590700915A0710915B073C8565
:1046A000311155C0B101C4010E94B89A6887798759
:1046B0008A879B876F89788D898D9A8D0E94B89A99
:1046C0002B013C019501A8016F89788D898D9A8D08
:1046D0000E949A9B18166CF09101A401B501C801C3
:1046E0000E949A9B181644F0B501C8010E94B89A1E
:1046F00007C0C301B20104C0688579858A859B859E
:104700009B01AC012419350946095709A1E0BFEF07
:104710000E946099288539854A855B852419350969
:10472000460957090E943899DA01C90181509F4F03
:10473000AF4FBF4F88874989481759F02FEF29831A
:104740001A828B83CE0101960E94AE6102C0398924
:1047500038879501A801B101C4010E9473992B010A
:104760003C0120E030E0A9010E949A9B87FF04C031
:1047700077FA709477F870948C819D81AE81BF81B7
:10478000892B8A2B8B2B59F420E030E040E85FE343
:10479000C301B2010E94289587FF0FC00AC020E024
:1047A00030E040EA50E4C301B2010E949A9B18161F
:1047B00024F4CC82DD82EE82FF829C85992379F1FC
:1047C0002D853E854F8558892115310541055105B7
:1047D00041F0D701C601821B930BA40BB50BB7FDAB
:1047E0001EC09501A8016B8D7C8D8D8D9E8D0E94C4
:1047F000739920E030E040EC5FE30E94289587FD4C
:10480000DECED701C601805A9541AF4FBF4F8D878D
:104810009E87AF87B88BAB8EBC8E0D8F1E8F80911D
:104820001C02882309F4CBCE2C813D814E815F810F
:10483000232B242B252B29F4710184018885898B56
:1048400092CE30E1C31A37E2D30AE108F1088C8135
:104850009D81AE81BF81C81AD90AEA0AFB0AF7FE18
:10486000AECEEACF0E94C77950CE6E960FB6F894BE
:10487000DEBF0FBECDBFDF91CF911F910F91FF9093
:10488000EF90DF90CF90BF90AF909F908F907F90F0
:104890006F905F904F903F902F9008958F929F92CE
:1048A000AF92BF92CF92DF92EF92FF92CF936B01C4
:1048B0007C01B42E20E030E0A9010E94289587FFFA
:1048C00006C08DE24ADBF7FAF094F7F8F094C0E006
:1048D00060E070E080E09FE3CB1541F02DEC3CEC14
:1048E0004CEC5DE30E948D95CF5FF6CF9B01AC0150
:1048F000C701B6010E9474996B017C010E94BD9AA8
:104900004B015C014AE0FDDCCC2379F1C501B40127
:104910000E942C959B01AC01C701B6010E947399BE
:104920006B017C018EE219DB20E030E040E251E4D3
:10493000C701B6010E948D954B015C010E94B89A97
:104940006B01770FEE08FF08C701B60181DDC701D3
:10495000B6010E942E959B01AC01C501B4010E94D5
:1049600073996B017C01C150F9F6CF91FF90EF90E4
:10497000DF90CF90BF90AF909F908F9008951F923F
:104980000F920FB60F9211240BB60F922F938F93A5
:104990009F93EF93FF9320912907E091280781E0EF
:1049A0008E0F8F779091C600281729F0F0E0E85518
:1049B000F94F9083E82FE0932807FF91EF919F91A3
:1049C0008F912F910F900BBE0F900FBE0F901F90E5
:1049D00018952F923F924F925F926F927F928F9293
:1049E0009F92AF92BF92CF92DF92EF92FF920F937E
:1049F0001F93CF93DF93CDB7DEB7C857D1090FB65A
:104A0000F894DEBF0FBECDBFE0915007F091510783
:104A1000EF2B11F00C94A42D2896DFAECEAE289784
:104A20006E2C79016A015B01FC0120813181428198
:104A300053816C962CAF3DAF4EAF5FAF6C9720911A
:104A400014043091150440911604509117046C968B
:104A50006CAD7DAD8EAD9FAD6C970E948D950E9423
:104A6000A59BE0966CAF7DAF8EAF9FAFE097D50171
:104A70008D919D910D90BC91A02DA0968CAF9DAF76
:104A8000AEAFBFAFA09720911804309119044091A8
:104A90001A0450911B04BC01CD010E948D950E9407
:104AA000A59BE4966CAF7DAF8EAF9FAFE497D60128
:104AB0002D913D914D915C91A4962CAF3DAF4EAFA1
:104AC0005FAFA49720911C0430911D0440911E04F7
:104AD00050911F04A4966CAD7DAD8EAD9FADA49793
:104AE0000E948D950E94A59BE8966CAF7DAF8EAF1E
:104AF0009FAFE897D7012D913D914D915C91229602
:104B00002CAF3DAF4EAF5FAF229720912004309184
:104B10002104409122045091230422966CAD7DAD76
:104B20008EAD9FAD22970E948D950E94A59B6096A9
:104B30006CAF7DAF8EAF9FAF609780914D0483FFC8
:104B40001CC060962CAD3DAD4EAD5FAD609720931F
:104B5000B10E3093B20E4093B30E5093B40E229622
:104B60008CAD9DADAEADBFAD22978093A10E90935D
:104B7000A20EA093A30EB093A40ED801BC91B9A726
:104B8000F801F181F9ABD8011296BC91BEABF801E6
:104B9000F381FAAF80917F0E9091800E891B8F7008
:104BA0008F3019F40E94004FF5CF00917F0EE996E7
:104BB0000FAFE99780917F0E082F10E01CA30BA385
:104BC0008091A50E9091A60EA091A70EB091A80E6F
:104BD000E0968CAC9DACAEACBFACE097881A990A5D
:104BE000AA0ABB0A8091A90E9091AA0EA091AB0EC1
:104BF000B091AC0EE4962CAC3DAC4EAC5FACE497FF
:104C0000281A390A4A0A5B0A8091AD0E9091AE0EBD
:104C1000A091AF0EB091B00EE8962CAD3DAD4EAD6B
:104C20005FADE897281B390B4A0B5B0B2DA33EA306
:104C30004FA358A78091B10E9091B20EA091B30EE0
:104C4000B091B40E60960CAD1DAD2EAD3FAD60972A
:104C5000081B190B2A0B3B0B0DA71EA72FA738AB60
:104C6000012B022B032B09F4B8C080913004811171
:104C700049C0609158077091590780915A079091E7
:104C80005B070E94B89A2091190230911A026217AC
:104C900073070CF037C060962CAD3DAD4EAD5FADE7
:104CA00060972093B10E3093B20E4093B30E5093A1
:104CB000B40E22968CAD9DADAEADBFAD2297809364
:104CC000A10E9093A20EA093A30EB093A40EE8EBB6
:104CD000FAE184918F010F5F1F4F811103C0EDE551
:104CE000F0E103C03AD9F801F4CF84918F010F5F4E
:104CF0001F4F882319F031D9F801F7CF1DA61EA642
:104D00001FA618AA94E0699E800111240D5E1D4F14
:104D10006DA57EA58FA598A90E942E95D8012D91ED
:104D20003D914D915C910E948D956B017C0120E03D
:104D300030E0A9010E949A9B87FF04C0F7FAF09423
:104D4000F7F8F0946091200470912104809122047E
:104D5000909123040E94B89A9B01AC01A8ECB0E0AA
:104D60000E9454990E942E95A70196010E942895B1
:104D700087FF37C060960CAD1DAD2EAD3FAD60977F
:104D80000093B10E1093B20E2093B30E3093B40E75
:104D900022962CAD3DAD4EAD5FAD22972093A10E76
:104DA0003093A20E4093A30E5093A40EE8EBFAE1C9
:104DB00084918F010F5F1F4F811103C0EEE3F0E17B
:104DC00003C0CBD8F801F4CF84918F010F5F1F4F40
:104DD000882319F0C2D8F801F7CF1DA61EA61FA67A
:104DE00018AAD501C4018827B7FD83959927AA275A
:104DF000BB27782E57FE03C0382F3260732E8DA14B
:104E00009EA1AFA1B8A5B7FF03C0972D9460792EDE
:104E10000DA51EA52FA538A937FF03C0172D1860B3
:104E2000712E24E0629E800111240D5E1D4F6DA540
:104E30007EA58FA598A90E942E95D8012D913D9110
:104E40004D915C910E948D956B017C0120E030E0DA
:104E5000A9010E949A9B87FF04C0C701B601905820
:104E600002C0C701B60120E030E040E05FE30E94ED
:104E700074990E94BD9A6AAB7BAB8CAB9DAB88E604
:104E80000BA11CA1809FF001819FF00D1124E05423
:104E9000F84F1082EA5BFF4F7082B501A401B7FEA4
:104EA00007C044275527BA01481959096A097B09DF
:104EB00088E60BA11CA1809FF001819FF00D1124B9
:104EC000E054F84F458B568B678B708F2C962CAE29
:104ED0003DAE4EAE5FAE2C9757FE0DC0882799278A
:104EE000DC0182199309A409B5092C968CAF9DAFFA
:104EF000AEAFBFAF2C9728E60BA11CA1209FF001FD
:104F0000219FF00D1124E054F84F2C968CAD9DADEF
:104F1000AEADBFAD2C97818F928FA38FB48F0DA1B3
:104F20001EA12FA138A537FF07C0309520951095F9
:104F300001951F4F2F4F3F4FE8E67E2EABA1BCA13E
:104F40007A9EF0017B9EF00D1124E054F84F058FFE
:104F5000168F278F30A38AA99BA9ACA9BDA981A3CD
:104F600092A3A3A3B4A323964FAF2397752EF62F36
:104F7000E72F2C968CAD9DADAEADBFAD2C974817ED
:104F800059076A077B0778F429969FAD29972396DE
:104F90009FAF23972A967FAC2A972B96FFAD2B972E
:104FA0002C96EFAD2C9723968FAD2397972DAF2F8F
:104FB000BE2F80179107A207B30710F4D901C801CB
:104FC0000AA91BA92CA93DA980179107A207B3071D
:104FD00010F4D901C80128E60BA11CA1209FF00103
:104FE000219FF00D1124E054F84F85A396A3A7A3A9
:104FF000B0A70697A105B10508F49FC5DF01AE591A
:10500000BF4F80917203909173038D939C9361A61F
:10501000452B462B472B09F05F9888E60BA11CA176
:10502000809FF001819FF00D1124E054F84F818D95
:10503000928DA38DB48D892B8A2B8B2B09F08A98A6
:1050400088E60BA11CA1809FF001819FF00D112427
:10505000E054F84F858D968DA78DB0A1892B8A2BB2
:105060008B2B31F080910801817080930601479865
:105070002AA93BA94CA95DA9232B242B252B09F494
:1050800065C58091A706882319F081508093A706F3
:10509000611004C0129880E28093A7066090DD033F
:1050A0007090DE030091DF031091E0039301A801EB
:1050B00069A579A98EA99AAD0E94289587FF04C099
:1050C00069A679AA0EAB1AAFC501B4010E942E954C
:1050D0002091B0073091B1074091B2075091B307CA
:1050E0000E948D9526966CAF7DAF8EAF9FAF2697B1
:1050F000698B7A8B8B8B9C8BC201B1010E942E95A0
:105100002091B4073091B5074091B6075091B70789
:105110000E948D952B013C016D8B7E8B8F8B988F20
:105120006DA17EA18FA198A50E942E952091B80710
:105130003091B9074091BA075091BB070E948D95F5
:105140004B015C01698F7A8F8B8F9C8F2091BC07FC
:105150003091BD074091BE075091BF07C701B6010E
:105160000E948D956B017C016D8F7E8F8F8F98A330
:1051700088E60BA11CA1809FF001819FF00D1124F6
:10518000E054F84F258936894789508D2DA33EA3D9
:105190004FA358A7263031054105510508F4DFC457
:1051A0002896AEADBFAD2897CD90DD90ED90FC90E8
:1051B00020E030E0A901C701B6010E9428958111C5
:1051C000EDC426962CAD3DAD4EAD5FAD2697CA0120
:1051D000B9010E948D956B017C01A3019201C3016D
:1051E000B2010E948D959B01AC01C701B6010E94DE
:1051F00074996B017C01A5019401C501B4010E9461
:105200008D959B01AC01C701B6010E9474990E9463
:10521000DF9B28E60BA11CA1209FF001219FF00D30
:105220001124E054F84F658776878787908B88E64E
:105230000BA11CA1809FF001819FF00D1124E0546F
:10524000F84F4584568467847088A301920160E01A
:1052500070E080E89FE30E94509A64966CAF7DAF47
:105260008EAF9FAF649729A539A94EA95AAD0E9468
:105270008D954B015C0180917F0E90917D0E891B75
:105280008F7027968FAF2797A501940160E074E295
:1052900084E799E40E94509A0E94A59B6B017C01CF
:1052A00027968FAD27978250863008F486C4A501D3
:1052B0009401C301B2010E948D959B01AC010E9433
:1052C0008D9568966CAF7DAF8EAF9FAF689788E67F
:1052D000ABA1BCA18A9F80018B9F100D11240054AB
:1052E000184F68962CAD3DAD4EAD5FAD6897D801B7
:1052F00011962D933D934D935C93149795962D9114
:105300003D914D915C9198972EAB3FAB48AF59AF13
:10531000CA01B9010E942C956AAF7BAF8CAF9DAFDB
:105320009B01AC01C501B4010E948D950E943A9A7F
:105330000E94BD9AA8966CAF7DAF8EAF9FAFA89725
:10534000F801EE5AFF4F60837183828393838E014D
:105350000F5E1F4F2A961FAF0EAF2A9700511109FB
:1053600024961FAF0EAF24970BEA13E0AC961FAF45
:105370000EAFAC978E010F5D1F4F1AA309A32496A1
:105380000EAD1FAD2497AA961FAF0EAFAA97312C72
:10539000212C10E819A70FE309AB2A96AEADBFADDB
:1053A0002A972D913D914D915D912A96BFAFAEAF59
:1053B0002A97C501B4010E948D956B017C01AA96C4
:1053C000EEADFFADAA976193719381939193AA96E5
:1053D000FFAFEEAFAA9720E030E0A9010E949A9BB0
:1053E00087FF04C0F7FAF094F7F8F094AC96AEADEE
:1053F000BFADAC974D905D906D907D90AC96BFAF7A
:10540000AEAFAC97A7019601C301B2010E942895E7
:1054100087FD0DC409A11AA12A962EAD3FAD2A978A
:105420000217130709F0B9CF20E030E040E85FE34E
:10543000632D722D89A599A90E94289587FF58C0D0
:105440007E0131E1E30EF11C24960EAD1FAD2497D1
:10545000232D322D49A559A9D8016D917D918D91AA
:105460009C910E948D95F801619371938193919322
:105470008F01EE16FF0661F728E60BA11CA1209F05
:10548000C001219F900D11249C012054384F7901B7
:1054900089010E5A1F4FA8966CAD7DAD8EAD9FADA4
:1054A000A8970E942C95232D322D49A559A90E9419
:1054B0008D950E94BD9AD8016D937D938D939C9399
:1054C0001397232D322D49A559A9632D722D89A536
:1054D00099A90E948D9568962CAD3DAD4EAD5FADFE
:1054E00068970E948D95F70161837283838394830B
:1054F0002AAD3BAD4CAD5DAD64966CAD7DAD8EAD72
:105500009FAD64970E948D9569A77AA78BA79CA7EA
:105510000DA11EA12FA138A5012B022B032B09F0F1
:105520009EC388E62BA13CA1829F8001839F100D22
:1055300011240054184FF801818D928DA38DB48DE4
:10554000892B8A2B8B2B09F08AC3858D968DA78D8D
:10555000B0A1892B8A2B8B2B09F081C32091BB032F
:105560003091BC034091BD035091BE0369A57AA55B
:105570008BA59CA50E948D950E943A9A0E94BD9A87
:105580002B013C01F801E95BFF4F108288E62BA15B
:105590003CA1829F8001839F100D11240054184F5D
:1055A000F801E25AFF4F4082518262827382C30146
:1055B000B2010E942C9529A53AA54BA55CA50E9495
:1055C000509A6AAF7BAF8CAF9DAFD80151966D9367
:1055D0007D938D939C935497F801E95BFF4F8081F5
:1055E000882381F17801B8E4EB0EF11C3796209105
:1055F0003F04309140044091410450914204608145
:105600007181828193810E948D952AAD3BAD4CAD15
:105610005DAD0E948D952091200430912104409130
:105620002204509123040E948D959B01AC0160E0FF
:1056300074E284EF99E40E94509A0E94BD9AF701A7
:105640007183608388E60BA11CA1809FF001819F7C
:10565000F00D1124E054F84F2181328143815481AF
:105660002C962CAF3DAF4EAF5FAF2C97CA01B9015E
:105670000E94DF9B362E272E8C0149EC53E0629668
:105680005FAF4EAF62973E0151E1650E711C89EC30
:1056900093E09FAB8EAB24964EAC5FAC24973DA6B7
:1056A0002DA209A719AB1AAAD201CD90DD90ED90D9
:1056B000FD902D0120E030E0A901C701B6010E9454
:1056C0009A9B87FF04C0F7FAF094F7F8F094EEA9DC
:1056D000FFA981909190A190B190FFABEEABA70193
:1056E0009601C501B4010E94289587FDD8C56414B0
:1056F0007504D1F627965FAD2797552309F448C660
:10570000C090810ED090820EE090830EF090840EB7
:105710002DEB37E346E855E3C701B6010E94289513
:1057200087FD36C6C701B6010E94DF9B6B017C0175
:105730009B01AC01632D722DC8010E94289587FD45
:1057400003C03C2C2D2C87019601A701632D722DDF
:10575000C8010E94509A68966CAF7DAF8EAF9FAF24
:10576000689785E89EE028969FAF8EAF289720E047
:1057700030E040E85FE32AAB3BAB4CAB5DAB1EAA2D
:105780002896AEADBFAD28972D913D914D915D917D
:105790002896BFAFAEAF289768966CAD7DAD8EAD45
:1057A0009FAD68970E948D954B015C012496EEADEC
:1057B000FFAD2497C190D190E190F1902496FFAF76
:1057C000EEAF2497FEA9FF2391F02AA93BA94CA98B
:1057D0005DA90E948D954B015C012AA93BA94CA9AA
:1057E0005DA9C701B6010E948D956B017C01A701DF
:1057F0009601C501B4010E949A9B20E030E0A90106
:1058000018160CF092C5C701B6010E949A9B181693
:105810000CF486C520E030E0A901C501B4010E9466
:10582000289587FD7DC52601370177FA709477F8B2
:105830007094A3019201C501B4010E949A9B1816AD
:1058400014F4240135016296AEADBFAD6297CD90E0
:10585000DD90ED90FD906296BFAFAEAF6297A30171
:105860009201C701B6010E94289587FF15C0A301C8
:105870009201C701B6010E94509A9B01AC016AA92E
:105880007BA98CA99DA90E948D956AAB7BAB8CAB43
:105890009DABBEA9BF5FBEABE5E9FEE028962EAD8D
:1058A0003FAD2897E217F30709F06ACF3EA93323EB
:1058B00061F02AA93BA94CA95DA9632D722DC801ED
:1058C0000E948D95362E272E8C0124EA30E74DE775
:1058D0005FE3632D722DC8010E948D956B017C01E1
:1058E0002091A3063091A4064091A5065091A606EA
:1058F0000E94289587FD42C58DA59DA1A9A5B9A99E
:105900008093A3069093A406A093A506B093A60641
:1059100028E64BA15CA1249FC001259F900D112476
:10592000DC01A054B84F7D01232D322DA801632D39
:10593000722DC8010E948D95F70161877287838758
:1059400094876AAD7BAD8CAD9DAD90589B01AC0149
:105950000E947499D7011D962D913D914D915C91B6
:1059600050970E948D959B01AC016BE077ED83E22F
:105970009BE30E9473999B01AC018BE097EDA3E23E
:10598000BBE3F70185839683A783B08710812C96AC
:105990006CAD7DAD8EAD9FAD2C970E9428951816ED
:1059A0000CF4FBC483E0182B88E62BA13CA1829F5A
:1059B000F001839FF00D1124E054F84F108380E133
:1059C000FE013196A5E8BEE001900D928A95E1F7BF
:1059D0002C968CAD9DADAEADBFAD2C978093810E56
:1059E0009093820EA093830EB093840EE0960CAD3C
:1059F0001DAD2EAD3FADE0970093A50E1093A60E02
:105A00002093A70E3093A80EE4962CAD3DAD4EAD7D
:105A10005FADE4972093A90E3093AA0E4093AB0E8E
:105A20005093AC0EE8968CAD9DADAEADBFADE89792
:105A30008093AD0E9093AE0EA093AF0EB093B00EC8
:105A400060960CAD1DAD2EAD3FAD60970093B10ECD
:105A50001093B20E2093B30E3093B40E6C962CAD0F
:105A60003DAD4EAD5FAD6C972093950E3093960E85
:105A70004093970E5093980EA0968CAD9DADAEAD11
:105A8000BFADA0978093990E90939A0EA0939B0E12
:105A9000B0939C0EA4960CAD1DAD2EAD3FADA4975A
:105AA00000939D0E10939E0E20939F0E3093A00E98
:105AB00022962CAD3DAD4EAD5FAD22972093A10E49
:105AC0003093A20E4093A30E5093A40E90917F0E9C
:105AD0008091800E981303C084E680937C0EE99633
